S01E000050414E313032365F41546D6567613132385F56312E302E73726563F1
S113000054C000006FC000006DC000006BC0000051
S113001069C0000067C0000065C0000063C0000044
S113002061C000005FC000005DC000005BC0000054
S113003059C0000057C0000055C0000053C0000064
S113004051C000004FC000004DC000004BC0000074
S113005049C0000047C0000045C0000043C0000084
S113006041C000003FC000003DC000003BC0000094
S113007039C0000037C000002BC2000033C00000AC
S113008031C000002FC000002DC000009C02A5025A
S1130090AA02AF02B402B902C902CE02D302D80244
S11300A0DD02E202F50208031B0311241FBECFEF99
S11300B0D0E1DEBFCDBF11E0A0E0B1E0E2E1F7E0C6
S11300C000E00BBF02C007900D92A63DB107D9F71F
S11300D022E0A6EDB1E001C01D92AD3FB207E1F709
S11300E0E6D115C38DCF6F927F928F929F92AF927C
S11300F0BF92CF92DF92EF92FF920F931F93CF9311
S1130100DF932FEF82E597E0215080409040E1F7A4
S113011000C000007090F4021092F402672D82E691
S113012092E0B0D220916202243019F4872D09D1D3
S1130130B5C02093F102222371F0E2E6F2E0AFE3CE
S1130140B2E08FEF820F90E08D599D4F31913D9336
S1130150E817F907D9F730E0F901EE59FD4F60814E
S1130160662309F4BFC06093F002DF01ECE1F2E022
S11301708FEF860F90E0835E9D4F4D914193E8177A
S1130180F907D9F75091F30281E0850F8093F302C8
S1130190260F311DF901EE59FD4F6081662309F4E4
S11301A0A1C06093EF02DF01E9EFF1E08FEF860F6A
S11301B090E086509E4F4D914193E817F907D9F787
S11301C082E0850F8093F302260F311DF901EE5969
S11301D0FD4F8081882309F485C08093EE02DF01FE
S11301E0E6EDF1E0815090E089529E4F2D912193EC
S11301F0E817F907D9F75D5F5093F30273C08130B4
S113020079F098F0823039F08330B1F59091EE02B4
S113021091112AC031C09091EF0291111CC02CC0E1
S11302209091F00291110EC027C09091F102992390
S113023019F1D501F70181918D938E2F8E198917AC
S1130240D0F31AC0D501F40181918D938E2F8819B2
S11302508917D0F311C0D501F80181918D938E2FA8
S1130260801B8917D0F308C0D501FE0181918D93BD
S11302708E2F8C1B8917D0F3D6018C91813E19F0F7
S1130280853E21F005C0872DC7D002C0872DFBD045
S113029063948091F302861508F0B1CF8091F30244
S11302A08823A9F0EFE3F2E08CE192E0C9EFD1E01A
S11302B046ED51E022E632E01192DC011D92CD01BF
S11302C01992DA011D92AD01E217F307A9F7109212
S11302D0F302E2E6F2E08EEE92E01192E817F907FB
S11302E0E1F720C08091F302612C0F2EFCE18F2EE8
S11302F0F2E09F2EF02D0F2EF2E6AF2EF2E0BF2E8D
S1130300F02D0F2EFFE3EF2EF2E0FF2EF02D09EF7C
S113031011E0C6EDD1E00F2EF5E6CF2EF2E0DF2E90
S1130320F02D6DCFDF91CF911F910F91FF90EF9042
S1130330DF90CF90BF90AF909F908F907F906F9001
S11303400895809163028E3019F08F3F11F1089562
S1130350209166028091670290E0820F911D8F3098
S1130360910549F08332910569F0892B09F053C056
S113037080E0D0C008958091680281114CC081E072
S1130380C9C0089580916802811145C086E0C2C049
S1130390089580916502883009F03DC0809167021C
S11303A0893931F480916802811102C087E0B2D0AA
S11303B080916C028B3581F018F48D3031F0089502
S11303C0833889F08838B1F0089580916D028111E5
S11303D022C082E09FC0089580916D0281111BC0EC
S11303E083E098C0089580916D02811114C084E067
S11303F091C0089580916D0281110DC0E0E7F2E093
S1130400A7EFB2E086E792E021912D93E817F90770
S1130410D9F785E07FC0089580916602813849F05C
S113042018F48D3719F108958C38C9F08D3B41F0DB
S1130430089580916902811125C088E06BC00895F8
S11304408091690281111EC080916E028432D1F4C0
S113045080917002811116C089E05CC0089580917A
S1130460690281110FC08BE055C008958091690223
S1130470813319F0833321F008958CE04BC0089543
S11304808DE048C0089580916602833449F0813834
S113049069F480916902811109C08AE03BC0089522
S11304A080916902811102C08EE034C008952FEF5B
S11304B081E19AE7215080409040E1F700C00000BC
S11304C0BFD0C7D080E026D078942BD00CDEFDCFEF
S11304D01F920F920FB60F9211240BB60F928F93A7
S11304E09F93EF93FF938091F40290919C00E82FE7
S11304F0F0E0EE59FD4F90838F5F8093F402FF91FB
S1130500EF919F918F910F900BBE0F900FBE0F90A4
S11305101F9018958093F6021092F4021092F20242
S113052008958091F60290E08F30910508F087C01D
S1130530FC01EA5BFF4FE5C064E08CEC91E0A2D0E3
S113054064E08CEC91E0B2C008956DE08FEB91E033
S1130550C1C008956FE080EB91E0BCC008956DE0E8
S113056083EA91E0B7C0089564E18FE891E0B2C0F6
S11305700895EDEFF2E0A9E8B1E087EF92E022916F
S11305802D93E817F907D9F76AE085E891E0A2C04E
S1130590089567E08EE791E09DC0089562E18CE6DE
S11305A091E098C008956DE08FE591E093C00895BF
S11305B067E088E591E08EC0089568E080E591E009
S11305C089C00895E0EDF1E0A0E4B1E086ED91E0AA
S11305D021912D93E817F907D9F786E08093F50266
S11305E067E189E391E076C00895E0EDF1E0A0E3EE
S11305F0B1E086ED91E021912D93E817F907D9F741
S113060086E08093F50263E186E291E063C0089599
S1130610E0EDF1E0AFE1B1E086ED91E021912D93C1
S1130620E817F907D9F786E08093F50261E185E1DF
S113063091E050C0089565E180E091E04BC00895D9
S113064088E089B992E09BB98AB986E080939500E5
S1130650089587E68093990082E080939B0088E95F
S113066080939A0086E080939D0008955D9BFECF61
S11306708CB90895EBE9F0E0908195FFFDCF80936C
S11306809C0008950F931F93CF93DF93062F662347
S113069041F0C82FD92F10E08991E8DF1F5F1013B4
S11306A0FBCFDF91CF911F910F9108950F931F936B
S11306B0CF93DF93062F662341F0C82FD92F10E084
S11306C08991D8DF1F5F1013FBCFDF91CF911F916A
S11306D00F9108951F93CF93DF93EC01162F809110
S11306E0F20281110AC0CE01CDDF612FCE01DEDF1F
S11306F08091F2028F5F8093F202DF91CF911F917C
S11307000895EE0FFF1F0590F491E02D0994F894DD
S1050710FFCF15
S1130712150000E5080E000C0050414E313032360F
S11307222054455354110000E13D0A002C040600F4
S1130732000000000000130000E13D0C002B04093E
S1130742000000000000010003170000E503100090
S11307520000000000000716000000000001050070
S1130762080000E10C010003070000E50100000D90
S11307720000E13D0600240C031811C0120000E140
S1130782010B0004000850414E3130323641010859
S1130792FC0300990101131006000000000000018F
S11307A208FC1000A10000001488FF1006A001013B
S11307B20602000108FC0900A00000001483FF00E7
S11307C20108FC0B00A0000000145BFF02030101FE
S11307D208FC0900A1000000140DFF0001030C0035
S10907E2120000431300A5
S9030000FC
